{
    "contractName": "Mfers3D",
    "abi": [
        {
            "inputs": [
                {
                    "internalType": "string",
                    "name": "_name",
                    "type": "string"
                },
                {
                    "internalType": "string",
                    "name": "_symbol",
                    "type": "string"
                },
                {
                    "internalType": "string",
                    "name": "_initBaseURI",
                    "type": "string"
                },
                {
                    "internalType": "string",
                    "name": "_initNotRevealedUri",
                    "type": "string"
                },
                {
                    "internalType": "address",
                    "name": "_mferAddress",
                    "type": "address"
                }
            ],
            "stateMutability": "nonpayable",
            "type": "constructor"
        },
        {
            "inputs": [],
            "name": "ApprovalCallerNotOwnerNorApproved",
            "type": "error"
        },
        {
            "inputs": [],
            "name": "ApprovalQueryForNonexistentToken",
            "type": "error"
        },
        {
            "inputs": [],
            "name": "ApprovalToCurrentOwner",
            "type": "error"
        },
        {
            "inputs": [],
            "name": "ApproveToCaller",
            "type": "error"
        },
        {
            "inputs": [],
            "name": "BalanceQueryForZeroAddress",
            "type": "error"
        },
        {
            "inputs": [],
            "name": "MintToZeroAddress",
            "type": "error"
        },
        {
            "inputs": [],
            "name": "MintZeroQuantity",
            "type": "error"
        },
        {
            "inputs": [],
            "name": "MintedQueryForZeroAddress",
            "type": "error"
        },
        {
            "inputs": [],
            "name": "OwnerQueryForNonexistentToken",
            "type": "error"
        },
        {
            "inputs": [],
            "name": "TransferCallerNotOwnerNorApproved",
            "type": "error"
        },
        {
            "inputs": [],
            "name": "TransferFromIncorrectOwner",
            "type": "error"
        },
        {
            "inputs": [],
            "name": "TransferToNonERC721ReceiverImplementer",
            "type": "error"
        },
        {
            "inputs": [],
            "name": "TransferToZeroAddress",
            "type": "error"
        },
        {
            "inputs": [],
            "name": "URIQueryForNonexistentToken",
            "type": "error"
        },
        {
            "anonymous": false,
            "inputs": [
                {
                    "indexed": true,
                    "internalType": "address",
                    "name": "owner",
                    "type": "address"
                },
                {
                    "indexed": true,
                    "internalType": "address",
                    "name": "approved",
                    "type": "address"
                },
                {
                    "indexed": true,
                    "internalType": "uint256",
                    "name": "tokenId",
                    "type": "uint256"
                }
            ],
            "name": "Approval",
            "type": "event"
        },
        {
            "anonymous": false,
            "inputs": [
                {
                    "indexed": true,
                    "internalType": "address",
                    "name": "owner",
                    "type": "address"
                },
                {
                    "indexed": true,
                    "internalType": "address",
                    "name": "operator",
                    "type": "address"
                },
                {
                    "indexed": false,
                    "internalType": "bool",
                    "name": "approved",
                    "type": "bool"
                }
            ],
            "name": "ApprovalForAll",
            "type": "event"
        },
        {
            "anonymous": false,
            "inputs": [
                {
                    "indexed": true,
                    "internalType": "address",
                    "name": "previousOwner",
                    "type": "address"
                },
                {
                    "indexed": true,
                    "internalType": "address",
                    "name": "newOwner",
                    "type": "address"
                }
            ],
            "name": "OwnershipTransferred",
            "type": "event"
        },
        {
            "anonymous": false,
            "inputs": [
                {
                    "indexed": true,
                    "internalType": "address",
                    "name": "from",
                    "type": "address"
                },
                {
                    "indexed": true,
                    "internalType": "address",
                    "name": "to",
                    "type": "address"
                },
                {
                    "indexed": true,
                    "internalType": "uint256",
                    "name": "tokenId",
                    "type": "uint256"
                }
            ],
            "name": "Transfer",
            "type": "event"
        },
        {
            "inputs": [
                {
                    "internalType": "address",
                    "name": "to",
                    "type": "address"
                },
                {
                    "internalType": "uint256",
                    "name": "tokenId",
                    "type": "uint256"
                }
            ],
            "name": "approve",
            "outputs": [],
            "stateMutability": "nonpayable",
            "type": "function"
        },
        {
            "inputs": [
                {
                    "internalType": "address",
                    "name": "owner",
                    "type": "address"
                }
            ],
            "name": "balanceOf",
            "outputs": [
                {
                    "internalType": "uint256",
                    "name": "",
                    "type": "uint256"
                }
            ],
            "stateMutability": "view",
            "type": "function"
        },
        {
            "inputs": [],
            "name": "cost",
            "outputs": [
                {
                    "internalType": "uint256",
                    "name": "",
                    "type": "uint256"
                }
            ],
            "stateMutability": "view",
            "type": "function"
        },
        {
            "inputs": [
                {
                    "internalType": "uint256",
                    "name": "tokenId",
                    "type": "uint256"
                }
            ],
            "name": "getApproved",
            "outputs": [
                {
                    "internalType": "address",
                    "name": "",
                    "type": "address"
                }
            ],
            "stateMutability": "view",
            "type": "function"
        },
        {
            "inputs": [
                {
                    "internalType": "address",
                    "name": "owner",
                    "type": "address"
                },
                {
                    "internalType": "address",
                    "name": "operator",
                    "type": "address"
                }
            ],
            "name": "isApprovedForAll",
            "outputs": [
                {
                    "internalType": "bool",
                    "name": "",
                    "type": "bool"
                }
            ],
            "stateMutability": "view",
            "type": "function"
        },
        {
            "inputs": [],
            "name": "maxMintPerAddress",
            "outputs": [
                {
                    "internalType": "uint256",
                    "name": "",
                    "type": "uint256"
                }
            ],
            "stateMutability": "view",
            "type": "function"
        },
        {
            "inputs": [],
            "name": "maxSupply",
            "outputs": [
                {
                    "internalType": "uint256",
                    "name": "",
                    "type": "uint256"
                }
            ],
            "stateMutability": "view",
            "type": "function"
        },
        {
            "inputs": [],
            "name": "maxmintPresale",
            "outputs": [
                {
                    "internalType": "uint256",
                    "name": "",
                    "type": "uint256"
                }
            ],
            "stateMutability": "view",
            "type": "function"
        },
        {
            "inputs": [],
            "name": "mferCommunityShare",
            "outputs": [
                {
                    "internalType": "uint256",
                    "name": "",
                    "type": "uint256"
                }
            ],
            "stateMutability": "view",
            "type": "function"
        },
        {
            "inputs": [],
            "name": "name",
            "outputs": [
                {
                    "internalType": "string",
                    "name": "",
                    "type": "string"
                }
            ],
            "stateMutability": "view",
            "type": "function"
        },
        {
            "inputs": [],
            "name": "owner",
            "outputs": [
                {
                    "internalType": "address",
                    "name": "",
                    "type": "address"
                }
            ],
            "stateMutability": "view",
            "type": "function"
        },
        {
            "inputs": [
                {
                    "internalType": "uint256",
                    "name": "tokenId",
                    "type": "uint256"
                }
            ],
            "name": "ownerOf",
            "outputs": [
                {
                    "internalType": "address",
                    "name": "",
                    "type": "address"
                }
            ],
            "stateMutability": "view",
            "type": "function"
        },
        {
            "inputs": [],
            "name": "paused",
            "outputs": [
                {
                    "internalType": "bool",
                    "name": "",
                    "type": "bool"
                }
            ],
            "stateMutability": "view",
            "type": "function"
        },
        {
            "inputs": [
                {
                    "internalType": "address",
                    "name": "dest",
                    "type": "address"
                }
            ],
            "name": "payments",
            "outputs": [
                {
                    "internalType": "uint256",
                    "name": "",
                    "type": "uint256"
                }
            ],
            "stateMutability": "view",
            "type": "function"
        },
        {
            "inputs": [],
            "name": "presale",
            "outputs": [
                {
                    "internalType": "bool",
                    "name": "",
                    "type": "bool"
                }
            ],
            "stateMutability": "view",
            "type": "function"
        },
        {
            "inputs": [],
            "name": "renounceOwnership",
            "outputs": [],
            "stateMutability": "nonpayable",
            "type": "function"
        },
        {
            "inputs": [],
            "name": "revealed",
            "outputs": [
                {
                    "internalType": "bool",
                    "name": "",
                    "type": "bool"
                }
            ],
            "stateMutability": "view",
            "type": "function"
        },
        {
            "inputs": [],
            "name": "revealed2",
            "outputs": [
                {
                    "internalType": "bool",
                    "name": "",
                    "type": "bool"
                }
            ],
            "stateMutability": "view",
            "type": "function"
        },
        {
            "inputs": [
                {
                    "internalType": "address",
                    "name": "from",
                    "type": "address"
                },
                {
                    "internalType": "address",
                    "name": "to",
                    "type": "address"
                },
                {
                    "internalType": "uint256",
                    "name": "tokenId",
                    "type": "uint256"
                }
            ],
            "name": "safeTransferFrom",
            "outputs": [],
            "stateMutability": "nonpayable",
            "type": "function"
        },
        {
            "inputs": [
                {
                    "internalType": "address",
                    "name": "from",
                    "type": "address"
                },
                {
                    "internalType": "address",
                    "name": "to",
                    "type": "address"
                },
                {
                    "internalType": "uint256",
                    "name": "tokenId",
                    "type": "uint256"
                },
                {
                    "internalType": "bytes",
                    "name": "_data",
                    "type": "bytes"
                }
            ],
            "name": "safeTransferFrom",
            "outputs": [],
            "stateMutability": "nonpayable",
            "type": "function"
        },
        {
            "inputs": [
                {
                    "internalType": "address",
                    "name": "operator",
                    "type": "address"
                },
                {
                    "internalType": "bool",
                    "name": "approved",
                    "type": "bool"
                }
            ],
            "name": "setApprovalForAll",
            "outputs": [],
            "stateMutability": "nonpayable",
            "type": "function"
        },
        {
            "inputs": [
                {
                    "internalType": "bytes4",
                    "name": "interfaceId",
                    "type": "bytes4"
                }
            ],
            "name": "supportsInterface",
            "outputs": [
                {
                    "internalType": "bool",
                    "name": "",
                    "type": "bool"
                }
            ],
            "stateMutability": "view",
            "type": "function"
        },
        {
            "inputs": [],
            "name": "symbol",
            "outputs": [
                {
                    "internalType": "string",
                    "name": "",
                    "type": "string"
                }
            ],
            "stateMutability": "view",
            "type": "function"
        },
        {
            "inputs": [],
            "name": "totalSupply",
            "outputs": [
                {
                    "internalType": "uint256",
                    "name": "",
                    "type": "uint256"
                }
            ],
            "stateMutability": "view",
            "type": "function"
        },
        {
            "inputs": [
                {
                    "internalType": "address",
                    "name": "from",
                    "type": "address"
                },
                {
                    "internalType": "address",
                    "name": "to",
                    "type": "address"
                },
                {
                    "internalType": "uint256",
                    "name": "tokenId",
                    "type": "uint256"
                }
            ],
            "name": "transferFrom",
            "outputs": [],
            "stateMutability": "nonpayable",
            "type": "function"
        },
        {
            "inputs": [
                {
                    "internalType": "address",
                    "name": "newOwner",
                    "type": "address"
                }
            ],
            "name": "transferOwnership",
            "outputs": [],
            "stateMutability": "nonpayable",
            "type": "function"
        },
        {
            "inputs": [
                {
                    "internalType": "address payable",
                    "name": "payee",
                    "type": "address"
                }
            ],
            "name": "withdrawPayments",
            "outputs": [],
            "stateMutability": "nonpayable",
            "type": "function"
        },
        {
            "inputs": [
                {
                    "internalType": "uint256",
                    "name": "quantity",
                    "type": "uint256"
                }
            ],
            "name": "mint",
            "outputs": [],
            "stateMutability": "payable",
            "type": "function"
        },
        {
            "inputs": [
                {
                    "internalType": "uint256",
                    "name": "tokenId",
                    "type": "uint256"
                }
            ],
            "name": "tokenURI",
            "outputs": [
                {
                    "internalType": "string",
                    "name": "",
                    "type": "string"
                }
            ],
            "stateMutability": "view",
            "type": "function"
        },
        {
            "inputs": [
                {
                    "internalType": "string",
                    "name": "_BaseURI",
                    "type": "string"
                }
            ],
            "name": "setBaseURI",
            "outputs": [],
            "stateMutability": "nonpayable",
            "type": "function"
        },
        {
            "inputs": [],
            "name": "setMintPublic",
            "outputs": [],
            "stateMutability": "nonpayable",
            "type": "function"
        },
        {
            "inputs": [
                {
                    "internalType": "bool",
                    "name": "_state",
                    "type": "bool"
                },
                {
                    "internalType": "bool",
                    "name": "_state2",
                    "type": "bool"
                }
            ],
            "name": "setRevealed",
            "outputs": [],
            "stateMutability": "nonpayable",
            "type": "function"
        },
        {
            "inputs": [
                {
                    "internalType": "bool",
                    "name": "_state",
                    "type": "bool"
                }
            ],
            "name": "pause",
            "outputs": [],
            "stateMutability": "nonpayable",
            "type": "function"
        },
        {
            "inputs": [
                {
                    "internalType": "string",
                    "name": "_BaseURI2",
                    "type": "string"
                }
            ],
            "name": "setBaseURI2",
            "outputs": [],
            "stateMutability": "nonpayable",
            "type": "function"
        },
        {
            "inputs": [],
            "name": "withdraw",
            "outputs": [],
            "stateMutability": "nonpayable",
            "type": "function"
        },
        {
            "inputs": [],
            "name": "getbaseURI",
            "outputs": [
                {
                    "internalType": "string",
                    "name": "",
                    "type": "string"
                }
            ],
            "stateMutability": "view",
            "type": "function"
        },
        {
            "inputs": [],
            "name": "getbaseURI2",
            "outputs": [
                {
                    "internalType": "string",
                    "name": "",
                    "type": "string"
                }
            ],
            "stateMutability": "view",
            "type": "function"
        },
        {
            "inputs": [],
            "name": "totalMinted",
            "outputs": [
                {
                    "internalType": "uint256",
                    "name": "",
                    "type": "uint256"
                }
            ],
            "stateMutability": "view",
            "type": "function"
        }
    ],
    "bytecode": "0x60a06040526001600a60146101000a81548160ff0219169083151502179055506000600a60156101000a81548160ff0219169083151502179055506000600a60166101000a81548160ff0219169083151502179055506000600a60176101000a81548160ff021916908315150217905550639502f900600b556200009e6005600b546200033e6401000000000262001f55179091906401000000009004565b600c55620000c7600a600b546200033e6401000000000262001f55179091906401000000009004565b600d5562000115620000f5600c54600d54620003566401000000000262001f6b179091906401000000009004565b600b546200036e6401000000000262001f81179091906401000000009004565b600e55600a600f55600160105560026011556040518060400160405280600581526020017f2e6a736f6e0000000000000000000000000000000000000000000000000000008152506014908051906020019062000174929190620005cf565b503480156200018257600080fd5b5060405162005de838038062005de88339818101604052810190620001a891906200088f565b84848160029080519060200190620001c2929190620005cf565b508060039080519060200190620001db929190620005cf565b50620001f562000386640100000000026401000000009004565b60008190555050506200022f6200021a6200038b640100000000026401000000009004565b62000393640100000000026401000000009004565b6040516200023d9062000660565b604051809103906000f0801580156200025a573d6000803e3d6000fd5b5073ffffffffffffffffffffffffffffffffffffffff1660808173ffffffffffffffffffffffffffffffffffffffff1681525050620002a88362000459640100000000026401000000009004565b620002c28262000516640100000000026401000000009004565b620002dc8162000532640100000000026401000000009004565b620002f96004600162000576640100000000026401000000009004565b620003166007600162000576640100000000026401000000009004565b62000333600c600162000576640100000000026401000000009004565b505050505062000bb3565b600081836200034e9190620009fb565b905092915050565b6000818362000366919062000a33565b905092915050565b600081836200037e919062000a90565b905092915050565b600090565b600033905090565b6000600860009054906101000a900473ffffffffffffffffffffffffffffffffffffffff16905081600860006101000a81548173ffffffffffffffffffffffffffffffffffffffff021916908373ffffffffffffffffffffffffffffffffffffffff1602179055508173ffffffffffffffffffffffffffffffffffffffff168173ffffffffffffffffffffffffffffffffffffffff167f8be0079c531659141344cd1fd0a4f28419497f9722a3daafe3b4186f6b6457e060405160405180910390a35050565b620004726200038b640100000000026401000000009004565b73ffffffffffffffffffffffffffffffffffffffff16620004a1620005a5640100000000026401000000009004565b73ffffffffffffffffffffffffffffffffffffffff1614620004fa576040517f08c379a0000000000000000000000000000000000000000000000000000000008152600401620004f19062000b2c565b60405180910390fd5b806012908051906020019062000512929190620005cf565b5050565b80601590805190602001906200052e929190620005cf565b5050565b80600a60006101000a81548173ffffffffffffffffffffffffffffffffffffffff021916908373ffffffffffffffffffffffffffffffffffffffff16021790555050565b806009600084815260200190815260200160002060006101000a81548160ff0219169083151502179055505050565b6000600860009054906101000a900473ffffffffffffffffffffffffffffffffffffffff16905090565b828054620005dd9062000b7d565b90600052602060002090601f0160209004810192826200060157600085556200064d565b82601f106200061c57805160ff19168380011785556200064d565b828001600101855582156200064d579182015b828111156200064c5782518255916020019190600101906200062f565b5b5090506200065c91906200066e565b5090565b610d5c806200508c83390190565b5b80821115620006895760008160009055506001016200066f565b5090565b6000604051905090565b600080fd5b600080fd5b600080fd5b600080fd5b6000601f19601f8301169050919050565b7f4e487b7100000000000000000000000000000000000000000000000000000000600052604160045260246000fd5b620006f682620006ab565b810181811067ffffffffffffffff82111715620007185762000717620006bc565b5b80604052505050565b60006200072d6200068d565b90506200073b8282620006eb565b919050565b600067ffffffffffffffff8211156200075e576200075d620006bc565b5b6200076982620006ab565b9050602081019050919050565b60005b838110156200079657808201518184015260208101905062000779565b83811115620007a6576000848401525b50505050565b6000620007c3620007bd8462000740565b62000721565b905082815260208101848484011115620007e257620007e1620006a6565b5b620007ef84828562000776565b509392505050565b600082601f8301126200080f576200080e620006a1565b5b815162000821848260208601620007ac565b91505092915050565b600073ffffffffffffffffffffffffffffffffffffffff82169050919050565b600062000857826200082a565b9050919050565b62000869816200084a565b81146200087557600080fd5b50565b60008151905062000889816200085e565b92915050565b600080600080600060a08688031215620008ae57620008ad62000697565b5b600086015167ffffffffffffffff811115620008cf57620008ce6200069c565b5b620008dd88828901620007f7565b955050602086015167ffffffffffffffff8111156200090157620009006200069c565b5b6200090f88828901620007f7565b945050604086015167ffffffffffffffff8111156200093357620009326200069c565b5b6200094188828901620007f7565b935050606086015167ffffffffffffffff8111156200096557620009646200069c565b5b6200097388828901620007f7565b9250506080620009868882890162000878565b9150509295509295909350565b6000819050919050565b7f4e487b7100000000000000000000000000000000000000000000000000000000600052601260045260246000fd5b7f4e487b7100000000000000000000000000000000000000000000000000000000600052601160045260246000fd5b600062000a088262000993565b915062000a158362000993565b92508262000a285762000a276200099d565b5b828204905092915050565b600062000a408262000993565b915062000a4d8362000993565b9250827fffffffffffffffffffffffffffffffffffffffffffffffffffffffffffffffff0382111562000a855762000a84620009cc565b5b828201905092915050565b600062000a9d8262000993565b915062000aaa8362000993565b92508282101562000ac05762000abf620009cc565b5b828203905092915050565b600082825260208201905092915050565b7f4f776e61626c653a2063616c6c6572206973206e6f7420746865206f776e6572600082015250565b600062000b1460208362000acb565b915062000b218262000adc565b602082019050919050565b6000602082019050818103600083015262000b478162000b05565b9050919050565b7f4e487b7100000000000000000000000000000000000000000000000000000000600052602260045260246000fd5b6000600282049050600182168062000b9657607f821691505b6020821081141562000bad5762000bac62000b4e565b5b50919050565b6080516144af62000bdd60003960008181610d9701528181611cfb0152612b2901526144af6000f3fe608060405260043610610242576000357c0100000000000000000000000000000000000000000000000000000000900480636352211e11610140578063a22cb465116100c8578063d5abeb011161008c578063d5abeb01146107cd578063e2982c21146107f8578063e985e9c514610835578063f2fde38b14610872578063fdea8e0b1461089b57610242565b8063a22cb465146106e8578063a2309ff814610711578063a45801a21461073c578063b88d4fde14610767578063c87b56dd1461079057610242565b8063777471f91161010f578063777471f9146106205780638ae7d2371461064b5780638da5cb5b1461067657806395d89b41146106a1578063a0712d68146106cc57610242565b80636352211e1461056657806370a08231146105a3578063715018a6146105e05780637361e1be146105f757610242565b806331b3eb94116101ce578063518302271161019257806351830227146104a557806355f804b3146104d0578063572849c4146104f95780635c975abb1461052457806361afdd301461054f57610242565b806331b3eb94146103e85780633370e34c146104115780633ccfd60b1461043c57806342842e0e1461045357806348f921fa1461047c57610242565b8063095ea7b311610215578063095ea7b31461031557806313faede61461033e57806318160ddd1461036957806323b872dd14610394578063241413f2146103bd57610242565b806301ffc9a71461024757806302329a291461028457806306fdde03146102ad578063081812fc146102d8575b600080fd5b34801561025357600080fd5b5061026e6004803603810190610269919061345b565b6108c6565b60405161027b91906134a3565b60405180910390f35b34801561029057600080fd5b506102ab60048036038101906102a691906134ea565b6109a8565b005b3480156102b957600080fd5b506102c2610a41565b6040516102cf91906135b0565b60405180910390f35b3480156102e457600080fd5b506102ff60048036038101906102fa9190613608565b610ad3565b60405161030c9190613676565b60405180910390f35b34801561032157600080fd5b5061033c600480360381019061033791906136bd565b610b4f565b005b34801561034a57600080fd5b50610353610c5a565b604051610360919061370c565b60405180910390f35b34801561037557600080fd5b5061037e610c60565b60405161038b919061370c565b60405180910390f35b3480156103a057600080fd5b506103bb60048036038101906103b69190613727565b610c77565b005b3480156103c957600080fd5b506103d2610c87565b6040516103df91906135b0565b60405180910390f35b3480156103f457600080fd5b5061040f600480360381019061040a91906137b8565b610d95565b005b34801561041d57600080fd5b50610426610e3f565b60405161043391906135b0565b60405180910390f35b34801561044857600080fd5b50610451610f4d565b005b34801561045f57600080fd5b5061047a60048036038101906104759190613727565b611060565b005b34801561048857600080fd5b506104a3600480360381019061049e919061391a565b611080565b005b3480156104b157600080fd5b506104ba611116565b6040516104c791906134a3565b60405180910390f35b3480156104dc57600080fd5b506104f760048036038101906104f2919061391a565b611129565b005b34801561050557600080fd5b5061050e6111bf565b60405161051b919061370c565b60405180910390f35b34801561053057600080fd5b506105396111c5565b60405161054691906134a3565b60405180910390f35b34801561055b57600080fd5b506105646111d8565b005b34801561057257600080fd5b5061058d60048036038101906105889190613608565b611271565b60405161059a9190613676565b60405180910390f35b3480156105af57600080fd5b506105ca60048036038101906105c59190613963565b611287565b6040516105d7919061370c565b60405180910390f35b3480156105ec57600080fd5b506105f5611357565b005b34801561060357600080fd5b5061061e60048036038101906106199190613990565b6113df565b005b34801561062c57600080fd5b50610635611493565b604051610642919061370c565b60405180910390f35b34801561065757600080fd5b50610660611499565b60405161066d919061370c565b60405180910390f35b34801561068257600080fd5b5061068b61149f565b6040516106989190613676565b60405180910390f35b3480156106ad57600080fd5b506106b66114c9565b6040516106c391906135b0565b60405180910390f35b6106e660048036038101906106e19190613608565b61155b565b005b3480156106f457600080fd5b5061070f600480360381019061070a91906139d0565b61185e565b005b34801561071d57600080fd5b506107266119d6565b604051610733919061370c565b60405180910390f35b34801561074857600080fd5b506107516119ea565b60405161075e91906134a3565b60405180910390f35b34801561077357600080fd5b5061078e60048036038101906107899190613ab1565b6119fd565b005b34801561079c57600080fd5b506107b760048036038101906107b29190613608565b611a79565b6040516107c491906135b0565b60405180910390f35b3480156107d957600080fd5b506107e2611cf1565b6040516107ef919061370c565b60405180910390f35b34801561080457600080fd5b5061081f600480360381019061081a9190613963565b611cf7565b60405161082c919061370c565b60405180910390f35b34801561084157600080fd5b5061085c60048036038101906108579190613b34565b611db6565b60405161086991906134a3565b60405180910390f35b34801561087e57600080fd5b5061089960048036038101906108949190613963565b611e4a565b005b3480156108a757600080fd5b506108b0611f42565b6040516108bd91906134a3565b60405180910390f35b60007f80ac58cd000000000000000000000000000000000000000000000000000000007bffffffffffffffffffffffffffffffffffffffffffffffffffffffff1916827bffffffffffffffffffffffffffffffffffffffffffffffffffffffff1916148061099157507f5b5e139f000000000000000000000000000000000000000000000000000000007bffffffffffffffffffffffffffffffffffffffffffffffffffffffff1916827bffffffffffffffffffffffffffffffffffffffffffffffffffffffff1916145b806109a157506109a082611f97565b5b9050919050565b6109b0612001565b73ffffffffffffffffffffffffffffffffffffffff166109ce61149f565b73ffffffffffffffffffffffffffffffffffffffff1614610a24576040517f08c379a0000000000000000000000000000000000000000000000000000000008152600401610a1b90613bc0565b60405180910390fd5b80600a60156101000a81548160ff02191690831515021790555050565b606060028054610a5090613c0f565b80601f0160208091040260200160405190810160405280929190818152602001828054610a7c90613c0f565b8015610ac95780601f10610a9e57610100808354040283529160200191610ac9565b820191906000526020600020905b815481529060010190602001808311610aac57829003601f168201915b5050505050905090565b6000610ade82612009565b610b14576040517fcf4700e400000000000000000000000000000000000000000000000000000000815260040160405180910390fd5b6006600083815260200190815260200160002060009054906101000a900473ffffffffffffffffffffffffffffffffffffffff169050919050565b6000610b5a82611271565b90508073ffffffffffffffffffffffffffffffffffffffff168373ffffffffffffffffffffffffffffffffffffffff161415610bc2576040517f943f7b8c00000000000000000000000000000000000000000000000000000000815260040160405180910390fd5b8073ffffffffffffffffffffffffffffffffffffffff16610be1612001565b73ffffffffffffffffffffffffffffffffffffffff1614158015610c135750610c1181610c0c612001565b611db6565b155b15610c4a576040517fcfb3b94200000000000000000000000000000000000000000000000000000000815260040160405180910390fd5b610c55838383612057565b505050565b600b5481565b6000610c6a612109565b6001546000540303905090565b610c8283838361210e565b505050565b6060610c91612001565b73ffffffffffffffffffffffffffffffffffffffff16610caf61149f565b73ffffffffffffffffffffffffffffffffffffffff1614610d05576040517f08c379a0000000000000000000000000000000000000000000000000000000008152600401610cfc90613bc0565b60405180910390fd5b60138054610d1290613c0f565b80601f0160208091040260200160405190810160405280929190818152602001828054610d3e90613c0f565b8015610d8b5780601f10610d6057610100808354040283529160200191610d8b565b820191906000526020600020905b815481529060010190602001808311610d6e57829003601f168201915b5050505050905090565b7f000000000000000000000000000000000000000000000000000000000000000073ffffffffffffffffffffffffffffffffffffffff166351cff8d9826040518263ffffffff167c0100000000000000000000000000000000000000000000000000000000028152600401610e0a9190613c50565b600060405180830381600087803b158015610e2457600080fd5b505af1158015610e38573d6000803e3d6000fd5b5050505050565b6060610e49612001565b73ffffffffffffffffffffffffffffffffffffffff16610e6761149f565b73ffffffffffffffffffffffffffffffffffffffff1614610ebd576040517f08c379a0000000000000000000000000000000000000000000000000000000008152600401610eb490613bc0565b60405180910390fd5b60128054610eca90613c0f565b80601f0160208091040260200160405190810160405280929190818152602001828054610ef690613c0f565b8015610f435780601f10610f1857610100808354040283529160200191610f43565b820191906000526020600020905b815481529060010190602001808311610f2657829003601f168201915b5050505050905090565b610f55612001565b73ffffffffffffffffffffffffffffffffffffffff16610f7361149f565b73ffffffffffffffffffffffffffffffffffffffff1614610fc9576040517f08c379a0000000000000000000000000000000000000000000000000000000008152600401610fc090613bc0565b60405180910390fd5b6000610fd361149f565b73ffffffffffffffffffffffffffffffffffffffff163073ffffffffffffffffffffffffffffffffffffffff163160405161100d90613c9c565b60006040518083038185875af1925050503d806000811461104a576040519150601f19603f3d011682016040523d82523d6000602084013e61104f565b606091505b505090508061105d57600080fd5b50565b61107b838383604051806020016040528060008152506119fd565b505050565b611088612001565b73ffffffffffffffffffffffffffffffffffffffff166110a661149f565b73ffffffffffffffffffffffffffffffffffffffff16146110fc576040517f08c379a00000000000000000000000000000000000000000000000000000000081526004016110f390613bc0565b60405180910390fd5b8060139080519060200190611112929190613309565b5050565b600a60169054906101000a900460ff1681565b611131612001565b73ffffffffffffffffffffffffffffffffffffffff1661114f61149f565b73ffffffffffffffffffffffffffffffffffffffff16146111a5576040517f08c379a000000000000000000000000000000000000000000000000000000000815260040161119c90613bc0565b60405180910390fd5b80601290805190602001906111bb929190613309565b5050565b60105481565b600a60159054906101000a900460ff1681565b6111e0612001565b73ffffffffffffffffffffffffffffffffffffffff166111fe61149f565b73ffffffffffffffffffffffffffffffffffffffff1614611254576040517f08c379a000000000000000000000000000000000000000000000000000000000815260040161124b90613bc0565b60405180910390fd5b6000600a60146101000a81548160ff021916908315150217905550565b600061127c826125ff565b600001519050919050565b60008073ffffffffffffffffffffffffffffffffffffffff168273ffffffffffffffffffffffffffffffffffffffff1614156112ef576040517f8f4eb60400000000000000000000000000000000000000000000000000000000815260040160405180910390fd5b600560008373ffffffffffffffffffffffffffffffffffffffff1673ffffffffffffffffffffffffffffffffffffffff16815260200190815260200160002060000160009054906101000a900467ffffffffffffffff1667ffffffffffffffff169050919050565b61135f612001565b73ffffffffffffffffffffffffffffffffffffffff1661137d61149f565b73ffffffffffffffffffffffffffffffffffffffff16146113d3576040517f08c379a00000000000000000000000000000000000000000000000000000000081526004016113ca90613bc0565b60405180910390fd5b6113dd600061288e565b565b6113e7612001565b73ffffffffffffffffffffffffffffffffffffffff1661140561149f565b73ffffffffffffffffffffffffffffffffffffffff161461145b576040517f08c379a000000000000000000000000000000000000000000000000000000000815260040161145290613bc0565b60405180910390fd5b81600a60166101000a81548160ff02191690831515021790555080600a60176101000a81548160ff0219169083151502179055505050565b600c5481565b60115481565b6000600860009054906101000a900473ffffffffffffffffffffffffffffffffffffffff16905090565b6060600380546114d890613c0f565b80601f016020809104026020016040519081016040528092919081815260200182805461150490613c0f565b80156115515780601f1061152657610100808354040283529160200191611551565b820191906000526020600020905b81548152906001019060200180831161153457829003601f168201915b5050505050905090565b600a60159054906101000a900460ff16156115ab576040517f08c379a00000000000000000000000000000000000000000000000000000000081526004016115a290613cfd565b60405180910390fd5b60006115b5612954565b9050600f546115cd8383611f6b90919063ffffffff16565b111561160e576040517f08c379a000000000000000000000000000000000000000000000000000000000815260040161160590613d69565b60405180910390fd5b60008211611651576040517f08c379a000000000000000000000000000000000000000000000000000000000815260040161164890613dd5565b60405180910390fd5b600061165c33612967565b90506010546116748483611f6b90919063ffffffff16565b11156116b5576040517f08c379a00000000000000000000000000000000000000000000000000000000081526004016116ac90613e41565b60405180910390fd5b600a60149054906101000a900460ff161561176e576011546116e08484611f6b90919063ffffffff16565b1115611721576040517f08c379a000000000000000000000000000000000000000000000000000000000815260040161171890613ead565b60405180910390fd5b61172a33612a37565b611769576040517f08c379a000000000000000000000000000000000000000000000000000000000815260040161176090613f19565b60405180910390fd5b61184f565b61178383600b54612b1190919063ffffffff16565b3410156117c5576040517f08c379a00000000000000000000000000000000000000000000000000000000081526004016117bc90613f85565b60405180910390fd5b6117f773de275ba0f69d1a83966958a56bc82edaa3a24f8c6117f285600d54612b1190919063ffffffff16565b612b27565b611829733728ab20f0da7e5863f25865ad7f5d6863e5000e61182485600c54612b1190919063ffffffff16565b612b27565b61184e61183461149f565b61184985600e54612b1190919063ffffffff16565b612b27565b5b6118593384612bd3565b505050565b611866612001565b73ffffffffffffffffffffffffffffffffffffffff168273ffffffffffffffffffffffffffffffffffffffff1614156118cb576040517fb06307db00000000000000000000000000000000000000000000000000000000815260040160405180910390fd5b80600760006118d8612001565b73ffffffffffffffffffffffffffffffffffffffff1673ffffffffffffffffffffffffffffffffffffffff16815260200190815260200160002060008473ffffffffffffffffffffffffffffffffffffffff1673ffffffffffffffffffffffffffffffffffffffff16815260200190815260200160002060006101000a81548160ff0219169083151502179055508173ffffffffffffffffffffffffffffffffffffffff16611985612001565b73ffffffffffffffffffffffffffffffffffffffff167f17307eab39ab6107e8899845ad3d59bd9653f200f220920489ca2b5937696c31836040516119ca91906134a3565b60405180910390a35050565b6000806119e1612954565b90508091505090565b600a60179054906101000a900460ff1681565b611a0884848461210e565b611a278373ffffffffffffffffffffffffffffffffffffffff16612bf1565b8015611a3c5750611a3a84848484612c14565b155b15611a73576040517fd1a57ed600000000000000000000000000000000000000000000000000000000815260040160405180910390fd5b50505050565b6060611a8482612009565b611aba576040517fa14c4b5000000000000000000000000000000000000000000000000000000000815260040160405180910390fd5b600a60169054906101000a900460ff16611b605760158054611adb90613c0f565b80601f0160208091040260200160405190810160405280929190818152602001828054611b0790613c0f565b8015611b545780601f10611b2957610100808354040283529160200191611b54565b820191906000526020600020905b815481529060010190602001808311611b3757829003601f168201915b50505050509050611cec565b6009600083815260200190815260200160002060009054906101000a900460ff1615611c8e57600a60179054906101000a900460ff16611c2c5760158054611ba790613c0f565b80601f0160208091040260200160405190810160405280929190818152602001828054611bd390613c0f565b8015611c205780601f10611bf557610100808354040283529160200191611c20565b820191906000526020600020905b815481529060010190602001808311611c0357829003601f168201915b50505050509050611cec565b600060138054611c3b90613c0f565b90501415611c585760405180602001604052806000815250611c87565b6013611c6383612d9d565b6014604051602001611c7793929190614075565b6040516020818303038152906040525b9050611cec565b600060128054611c9d90613c0f565b90501415611cba5760405180602001604052806000815250611ce9565b6012611cc583612d9d565b6014604051602001611cd993929190614075565b6040516020818303038152906040525b90505b919050565b600f5481565b60007f000000000000000000000000000000000000000000000000000000000000000073ffffffffffffffffffffffffffffffffffffffff1663e3a9db1a836040518263ffffffff167c0100000000000000000000000000000000000000000000000000000000028152600401611d6e9190613676565b602060405180830381865afa158015611d8b573d6000803e3d6000fd5b505050506040513d601f19601f82011682018060405250810190611daf91906140bb565b9050919050565b6000600760008473ffffffffffffffffffffffffffffffffffffffff1673ffffffffffffffffffffffffffffffffffffffff16815260200190815260200160002060008373ffffffffffffffffffffffffffffffffffffffff1673ffffffffffffffffffffffffffffffffffffffff16815260200190815260200160002060009054906101000a900460ff16905092915050565b611e52612001565b73ffffffffffffffffffffffffffffffffffffffff16611e7061149f565b73ffffffffffffffffffffffffffffffffffffffff1614611ec6576040517f08c379a0000000000000000000000000000000000000000000000000000000008152600401611ebd90613bc0565b60405180910390fd5b600073ffffffffffffffffffffffffffffffffffffffff168173ffffffffffffffffffffffffffffffffffffffff161415611f36576040517f08c379a0000000000000000000000000000000000000000000000000000000008152600401611f2d9061415a565b60405180910390fd5b611f3f8161288e565b50565b600a60149054906101000a900460ff1681565b60008183611f6391906141d8565b905092915050565b60008183611f799190614209565b905092915050565b60008183611f8f919061425f565b905092915050565b60007f01ffc9a7000000000000000000000000000000000000000000000000000000007bffffffffffffffffffffffffffffffffffffffffffffffffffffffff1916827bffffffffffffffffffffffffffffffffffffffffffffffffffffffff1916149050919050565b600033905090565b600081612014612109565b11158015612023575060005482105b8015612050575060046000838152602001908152602001600020600001601c9054906101000a900460ff16155b9050919050565b826006600084815260200190815260200160002060006101000a81548173ffffffffffffffffffffffffffffffffffffffff021916908373ffffffffffffffffffffffffffffffffffffffff160217905550818373ffffffffffffffffffffffffffffffffffffffff168273ffffffffffffffffffffffffffffffffffffffff167f8c5be1e5ebec7d5bd14f71427d1e84f3dd0314c0f7b2291e5b200ac8c7c3b92560405160405180910390a4505050565b600090565b6000612119826125ff565b90506000816000015173ffffffffffffffffffffffffffffffffffffffff16612140612001565b73ffffffffffffffffffffffffffffffffffffffff1614806121735750612172826000015161216d612001565b611db6565b5b806121b85750612181612001565b73ffffffffffffffffffffffffffffffffffffffff166121a084610ad3565b73ffffffffffffffffffffffffffffffffffffffff16145b9050806121f1576040517f59c896be00000000000000000000000000000000000000000000000000000000815260040160405180910390fd5b8473ffffffffffffffffffffffffffffffffffffffff16826000015173ffffffffffffffffffffffffffffffffffffffff161461225a576040517fa114810000000000000000000000000000000000000000000000000000000000815260040160405180910390fd5b600073ffffffffffffffffffffffffffffffffffffffff168473ffffffffffffffffffffffffffffffffffffffff1614156122c1576040517fea553b3400000000000000000000000000000000000000000000000000000000815260040160405180910390fd5b6122ce8585856001612f1d565b6122de6000848460000151612057565b6001600560008773ffffffffffffffffffffffffffffffffffffffff1673ffffffffffffffffffffffffffffffffffffffff16815260200190815260200160002060000160008282829054906101000a900467ffffffffffffffff160392506101000a81548167ffffffffffffffff021916908367ffffffffffffffff1602179055506001600560008673ffffffffffffffffffffffffffffffffffffffff1673ffffffffffffffffffffffffffffffffffffffff16815260200190815260200160002060000160008282829054906101000a900467ffffffffffffffff160192506101000a81548167ffffffffffffffff021916908367ffffffffffffffff160217905550836004600085815260200190815260200160002060000160006101000a81548173ffffffffffffffffffffffffffffffffffffffff021916908373ffffffffffffffffffffffffffffffffffffffff160217905550426004600085815260200190815260200160002060000160146101000a81548167ffffffffffffffff021916908367ffffffffffffffff1602179055506000600184019050600073ffffffffffffffffffffffffffffffffffffffff166004600083815260200190815260200160002060000160009054906101000a900473ffffffffffffffffffffffffffffffffffffffff1673ffffffffffffffffffffffffffffffffffffffff16141561258f5760005481101561258e5782600001516004600083815260200190815260200160002060000160006101000a81548173ffffffffffffffffffffffffffffffffffffffff021916908373ffffffffffffffffffffffffffffffffffffffff16021790555082602001516004600083815260200190815260200160002060000160146101000a81548167ffffffffffffffff021916908367ffffffffffffffff1602179055505b5b50828473ffffffffffffffffffffffffffffffffffffffff168673ffffffffffffffffffffffffffffffffffffffff167fddf252ad1be2c89b69c2b068fc378daa952ba7f163c4a11628f55a4df523b3ef60405160405180910390a46125f88585856001612f23565b5050505050565b61260761338f565b600082905080612615612109565b11158015612624575060005481105b15612857576000600460008381526020019081526020016000206040518060600160405290816000820160009054906101000a900473ffffffffffffffffffffffffffffffffffffffff1673ffffffffffffffffffffffffffffffffffffffff1673ffffffffffffffffffffffffffffffffffffffff1681526020016000820160149054906101000a900467ffffffffffffffff1667ffffffffffffffff1667ffffffffffffffff16815260200160008201601c9054906101000a900460ff1615151515815250509050806040015161285557600073ffffffffffffffffffffffffffffffffffffffff16816000015173ffffffffffffffffffffffffffffffffffffffff1614612739578092505050612889565b5b60011561285457818060019003925050600460008381526020019081526020016000206040518060600160405290816000820160009054906101000a900473ffffffffffffffffffffffffffffffffffffffff1673ffffffffffffffffffffffffffffffffffffffff1673ffffffffffffffffffffffffffffffffffffffff1681526020016000820160149054906101000a900467ffffffffffffffff1667ffffffffffffffff1667ffffffffffffffff16815260200160008201601c9054906101000a900460ff1615151515815250509050600073ffffffffffffffffffffffffffffffffffffffff16816000015173ffffffffffffffffffffffffffffffffffffffff161461284f578092505050612889565b61273a565b5b505b6040517fdf2d9b4200000000000000000000000000000000000000000000000000000000815260040160405180910390fd5b919050565b6000600860009054906101000a900473ffffffffffffffffffffffffffffffffffffffff16905081600860006101000a81548173ffffffffffffffffffffffffffffffffffffffff021916908373ffffffffffffffffffffffffffffffffffffffff1602179055508173ffffffffffffffffffffffffffffffffffffffff168173ffffffffffffffffffffffffffffffffffffffff167f8be0079c531659141344cd1fd0a4f28419497f9722a3daafe3b4186f6b6457e060405160405180910390a35050565b600061295e612109565b60005403905090565b60008073ffffffffffffffffffffffffffffffffffffffff168273ffffffffffffffffffffffffffffffffffffffff1614156129cf576040517f35ebb31900000000000000000000000000000000000000000000000000000000815260040160405180910390fd5b600560008373ffffffffffffffffffffffffffffffffffffffff1673ffffffffffffffffffffffffffffffffffffffff16815260200190815260200160002060000160089054906101000a900467ffffffffffffffff1667ffffffffffffffff169050919050565b600080600a60009054906101000a900473ffffffffffffffffffffffffffffffffffffffff16905060018173ffffffffffffffffffffffffffffffffffffffff166370a08231856040518263ffffffff167c0100000000000000000000000000000000000000000000000000000000028152600401612ab69190613676565b602060405180830381865afa158015612ad3573d6000803e3d6000fd5b505050506040513d601f19601f82011682018060405250810190612af791906140bb565b10612b06576001915050612b0c565b60009150505b919050565b60008183612b1f9190614293565b905092915050565b7f000000000000000000000000000000000000000000000000000000000000000073ffffffffffffffffffffffffffffffffffffffff1663f340fa0182846040518363ffffffff167c0100000000000000000000000000000000000000000000000000000000028152600401612b9d9190613676565b6000604051808303818588803b158015612bb657600080fd5b505af1158015612bca573d6000803e3d6000fd5b50505050505050565b612bed828260405180602001604052806000815250612f29565b5050565b6000808273ffffffffffffffffffffffffffffffffffffffff163b119050919050565b60008373ffffffffffffffffffffffffffffffffffffffff1663150b7a02612c3a612001565b8786866040518563ffffffff167c0100000000000000000000000000000000000000000000000000000000028152600401612c789493929190614342565b6020604051808303816000875af1925050508015612cb457506040513d601f19601f82011682018060405250810190612cb191906143a3565b60015b612d2e573d8060008114612ce4576040519150601f19603f3d011682016040523d82523d6000602084013e612ce9565b606091505b50600081511415612d26576040517fd1a57ed600000000000000000000000000000000000000000000000000000000815260040160405180910390fd5b805181602001fd5b63150b7a027c0100000000000000000000000000000000000000000000000000000000027bffffffffffffffffffffffffffffffffffffffffffffffffffffffff1916817bffffffffffffffffffffffffffffffffffffffffffffffffffffffff191614915050949350505050565b60606000821415612de5576040518060400160405280600181526020017f30000000000000000000000000000000000000000000000000000000000000008152509050612f18565b600082905060005b60008214612e17578080612e00906143d0565b915050600a82612e1091906141d8565b9150612ded565b60008167ffffffffffffffff811115612e3357612e326137ef565b5b6040519080825280601f01601f191660200182016040528015612e655781602001600182028036833780820191505090505b5090505b60008514612f1157600182612e7e919061425f565b9150600a85612e8d9190614419565b6030612e999190614209565b7f010000000000000000000000000000000000000000000000000000000000000002818381518110612ece57612ecd61444a565b5b60200101907effffffffffffffffffffffffffffffffffffffffffffffffffffffffffffff1916908160001a905350600a85612f0a91906141d8565b9450612e69565b8093505050505b919050565b50505050565b50505050565b612f368383836001612f3b565b505050565b600080549050600073ffffffffffffffffffffffffffffffffffffffff168573ffffffffffffffffffffffffffffffffffffffff161415612fa8576040517f2e07630000000000000000000000000000000000000000000000000000000000815260040160405180910390fd5b6000841415612fe3576040517fb562e8dd00000000000000000000000000000000000000000000000000000000815260040160405180910390fd5b612ff06000868387612f1d565b83600560008773ffffffffffffffffffffffffffffffffffffffff1673ffffffffffffffffffffffffffffffffffffffff16815260200190815260200160002060000160008282829054906101000a900467ffffffffffffffff160192506101000a81548167ffffffffffffffff021916908367ffffffffffffffff16021790555083600560008773ffffffffffffffffffffffffffffffffffffffff1673ffffffffffffffffffffffffffffffffffffffff16815260200190815260200160002060000160088282829054906101000a900467ffffffffffffffff160192506101000a81548167ffffffffffffffff021916908367ffffffffffffffff160217905550846004600083815260200190815260200160002060000160006101000a81548173ffffffffffffffffffffffffffffffffffffffff021916908373ffffffffffffffffffffffffffffffffffffffff160217905550426004600083815260200190815260200160002060000160146101000a81548167ffffffffffffffff021916908367ffffffffffffffff1602179055506000819050600085820190508380156131ba57506131b98773ffffffffffffffffffffffffffffffffffffffff16612bf1565b5b15613280575b818773ffffffffffffffffffffffffffffffffffffffff16600073ffffffffffffffffffffffffffffffffffffffff167fddf252ad1be2c89b69c2b068fc378daa952ba7f163c4a11628f55a4df523b3ef60405160405180910390a461322f6000888480600101955088612c14565b613265576040517fd1a57ed600000000000000000000000000000000000000000000000000000000815260040160405180910390fd5b808214156131c057826000541461327b57600080fd5b6132ec565b5b818060010192508773ffffffffffffffffffffffffffffffffffffffff16600073ffffffffffffffffffffffffffffffffffffffff167fddf252ad1be2c89b69c2b068fc378daa952ba7f163c4a11628f55a4df523b3ef60405160405180910390a480821415613281575b8160008190555050506133026000868387612f23565b5050505050565b82805461331590613c0f565b90600052602060002090601f016020900481019282613337576000855561337e565b82601f1061335057805160ff191683800117855561337e565b8280016001018555821561337e579182015b8281111561337d578251825591602001919060010190613362565b5b50905061338b91906133d2565b5090565b6040518060600160405280600073ffffffffffffffffffffffffffffffffffffffff168152602001600067ffffffffffffffff1681526020016000151581525090565b5b808211156133eb5760008160009055506001016133d3565b5090565b6000604051905090565b600080fd5b600080fd5b60007fffffffff0000000000000000000000000000000000000000000000000000000082169050919050565b61343881613403565b811461344357600080fd5b50565b6000813590506134558161342f565b92915050565b600060208284031215613471576134706133f9565b5b600061347f84828501613446565b91505092915050565b60008115159050919050565b61349d81613488565b82525050565b60006020820190506134b86000830184613494565b92915050565b6134c781613488565b81146134d257600080fd5b50565b6000813590506134e4816134be565b92915050565b600060208284031215613500576134ff6133f9565b5b600061350e848285016134d5565b91505092915050565b600081519050919050565b600082825260208201905092915050565b60005b83811015613551578082015181840152602081019050613536565b83811115613560576000848401525b50505050565b6000601f19601f8301169050919050565b600061358282613517565b61358c8185613522565b935061359c818560208601613533565b6135a581613566565b840191505092915050565b600060208201905081810360008301526135ca8184613577565b905092915050565b6000819050919050565b6135e5816135d2565b81146135f057600080fd5b50565b600081359050613602816135dc565b92915050565b60006020828403121561361e5761361d6133f9565b5b600061362c848285016135f3565b91505092915050565b600073ffffffffffffffffffffffffffffffffffffffff82169050919050565b600061366082613635565b9050919050565b61367081613655565b82525050565b600060208201905061368b6000830184613667565b92915050565b61369a81613655565b81146136a557600080fd5b50565b6000813590506136b781613691565b92915050565b600080604083850312156136d4576136d36133f9565b5b60006136e2858286016136a8565b92505060206136f3858286016135f3565b9150509250929050565b613706816135d2565b82525050565b600060208201905061372160008301846136fd565b92915050565b6000806000606084860312156137405761373f6133f9565b5b600061374e868287016136a8565b935050602061375f868287016136a8565b9250506040613770868287016135f3565b9150509250925092565b600061378582613635565b9050919050565b6137958161377a565b81146137a057600080fd5b50565b6000813590506137b28161378c565b92915050565b6000602082840312156137ce576137cd6133f9565b5b60006137dc848285016137a3565b91505092915050565b600080fd5b600080fd5b7f4e487b7100000000000000000000000000000000000000000000000000000000600052604160045260246000fd5b61382782613566565b810181811067ffffffffffffffff82111715613846576138456137ef565b5b80604052505050565b60006138596133ef565b9050613865828261381e565b919050565b600067ffffffffffffffff821115613885576138846137ef565b5b61388e82613566565b9050602081019050919050565b82818337600083830152505050565b60006138bd6138b88461386a565b61384f565b9050828152602081018484840111156138d9576138d86137ea565b5b6138e484828561389b565b509392505050565b600082601f830112613901576139006137e5565b5b81356139118482602086016138aa565b91505092915050565b6000602082840312156139305761392f6133f9565b5b600082013567ffffffffffffffff81111561394e5761394d6133fe565b5b61395a848285016138ec565b91505092915050565b600060208284031215613979576139786133f9565b5b6000613987848285016136a8565b91505092915050565b600080604083850312156139a7576139a66133f9565b5b60006139b5858286016134d5565b92505060206139c6858286016134d5565b9150509250929050565b600080604083850312156139e7576139e66133f9565b5b60006139f5858286016136a8565b9250506020613a06858286016134d5565b9150509250929050565b600067ffffffffffffffff821115613a2b57613a2a6137ef565b5b613a3482613566565b9050602081019050919050565b6000613a54613a4f84613a10565b61384f565b905082815260208101848484011115613a7057613a6f6137ea565b5b613a7b84828561389b565b509392505050565b600082601f830112613a9857613a976137e5565b5b8135613aa8848260208601613a41565b91505092915050565b60008060008060808587031215613acb57613aca6133f9565b5b6000613ad9878288016136a8565b9450506020613aea878288016136a8565b9350506040613afb878288016135f3565b925050606085013567ffffffffffffffff811115613b1c57613b1b6133fe565b5b613b2887828801613a83565b91505092959194509250565b60008060408385031215613b4b57613b4a6133f9565b5b6000613b59858286016136a8565b9250506020613b6a858286016136a8565b9150509250929050565b7f4f776e61626c653a2063616c6c6572206973206e6f7420746865206f776e6572600082015250565b6000613baa602083613522565b9150613bb582613b74565b602082019050919050565b60006020820190508181036000830152613bd981613b9d565b9050919050565b7f4e487b7100000000000000000000000000000000000000000000000000000000600052602260045260246000fd5b60006002820490506001821680613c2757607f821691505b60208210811415613c3b57613c3a613be0565b5b50919050565b613c4a8161377a565b82525050565b6000602082019050613c656000830184613c41565b92915050565b600081905092915050565b50565b6000613c86600083613c6b565b9150613c9182613c76565b600082019050919050565b6000613ca782613c79565b9150819050919050565b7f74686520636f6e74726163742069732070617573656400000000000000000000600082015250565b6000613ce7601683613522565b9150613cf282613cb1565b602082019050919050565b60006020820190508181036000830152613d1681613cda565b9050919050565b7f43616e74206d696e742061626f7665206d617820737570706c79000000000000600082015250565b6000613d53601a83613522565b9150613d5e82613d1d565b602082019050919050565b60006020820190508181036000830152613d8281613d46565b9050919050565b7f6d696e742061746c656173742031204e46540000000000000000000000000000600082015250565b6000613dbf601283613522565b9150613dca82613d89565b602082019050919050565b60006020820190508181036000830152613dee81613db2565b9050919050565b7f4d6178696d756d206d696e74206c696d6974207065722077616c6c6574000000600082015250565b6000613e2b601d83613522565b9150613e3682613df5565b602082019050919050565b60006020820190508181036000830152613e5a81613e1e565b9050919050565b7f50726573616c65206c696d6974206f7665720000000000000000000000000000600082015250565b6000613e97601283613522565b9150613ea282613e61565b602082019050919050565b60006020820190508181036000830152613ec681613e8a565b9050919050565b7f6e6f742077686974656c697374656420666f722070726573616c650000000000600082015250565b6000613f03601b83613522565b9150613f0e82613ecd565b602082019050919050565b60006020820190508181036000830152613f3281613ef6565b9050919050565b7f696e73756666696369656e742066756e64730000000000000000000000000000600082015250565b6000613f6f601283613522565b9150613f7a82613f39565b602082019050919050565b60006020820190508181036000830152613f9e81613f62565b9050919050565b600081905092915050565b60008190508160005260206000209050919050565b60008154613fd281613c0f565b613fdc8186613fa5565b94506001821660008114613ff757600181146140085761403b565b60ff1983168652818601935061403b565b61401185613fb0565b60005b8381101561403357815481890152600182019150602081019050614014565b838801955050505b50505092915050565b600061404f82613517565b6140598185613fa5565b9350614069818560208601613533565b80840191505092915050565b60006140818286613fc5565b915061408d8285614044565b91506140998284613fc5565b9150819050949350505050565b6000815190506140b5816135dc565b92915050565b6000602082840312156140d1576140d06133f9565b5b60006140df848285016140a6565b91505092915050565b7f4f776e61626c653a206e6577206f776e657220697320746865207a65726f206160008201527f6464726573730000000000000000000000000000000000000000000000000000602082015250565b6000614144602683613522565b915061414f826140e8565b604082019050919050565b6000602082019050818103600083015261417381614137565b9050919050565b7f4e487b7100000000000000000000000000000000000000000000000000000000600052601260045260246000fd5b7f4e487b7100000000000000000000000000000000000000000000000000000000600052601160045260246000fd5b60006141e3826135d2565b91506141ee836135d2565b9250826141fe576141fd61417a565b5b828204905092915050565b6000614214826135d2565b915061421f836135d2565b9250827fffffffffffffffffffffffffffffffffffffffffffffffffffffffffffffffff03821115614254576142536141a9565b5b828201905092915050565b600061426a826135d2565b9150614275836135d2565b925082821015614288576142876141a9565b5b828203905092915050565b600061429e826135d2565b91506142a9836135d2565b9250817fffffffffffffffffffffffffffffffffffffffffffffffffffffffffffffffff04831182151516156142e2576142e16141a9565b5b828202905092915050565b600081519050919050565b600082825260208201905092915050565b6000614314826142ed565b61431e81856142f8565b935061432e818560208601613533565b61433781613566565b840191505092915050565b60006080820190506143576000830187613667565b6143646020830186613667565b61437160408301856136fd565b81810360608301526143838184614309565b905095945050505050565b60008151905061439d8161342f565b92915050565b6000602082840312156143b9576143b86133f9565b5b60006143c78482850161438e565b91505092915050565b60006143db826135d2565b91507fffffffffffffffffffffffffffffffffffffffffffffffffffffffffffffffff82141561440e5761440d6141a9565b5b600182019050919050565b6000614424826135d2565b915061442f836135d2565b92508261443f5761443e61417a565b5b828206905092915050565b7f4e487b7100000000000000000000000000000000000000000000000000000000600052603260045260246000fdfea2646970667358221220cd4954d1977f58da75ccedf60a74565adfeff52e3f6125de1abb58d9bc8cd01064736f6c634300080b0033608060405234801561001057600080fd5b5061003f61002b610044640100000000026401000000009004565b61004c640100000000026401000000009004565b610110565b600033905090565b60008060009054906101000a900473ffffffffffffffffffffffffffffffffffffffff169050816000806101000a81548173ffffffffffffffffffffffffffffffffffffffff021916908373ffffffffffffffffffffffffffffffffffffffff1602179055508173ffffffffffffffffffffffffffffffffffffffff168173ffffffffffffffffffffffffffffffffffffffff167f8be0079c531659141344cd1fd0a4f28419497f9722a3daafe3b4186f6b6457e060405160405180910390a35050565b610c3d8061011f6000396000f3fe608060405260043610610072576000357c01000000000000000000000000000000000000000000000000000000009004806351cff8d914610077578063715018a6146100a05780638da5cb5b146100b7578063e3a9db1a146100e2578063f2fde38b1461011f578063f340fa0114610148575b600080fd5b34801561008357600080fd5b5061009e60048036038101906100999190610839565b610164565b005b3480156100ac57600080fd5b506100b56102e4565b005b3480156100c357600080fd5b506100cc61036c565b6040516100d99190610887565b60405180910390f35b3480156100ee57600080fd5b50610109600480360381019061010491906108ce565b610395565b6040516101169190610914565b60405180910390f35b34801561012b57600080fd5b50610146600480360381019061014191906108ce565b6103de565b005b610162600480360381019061015d91906108ce565b6104d6565b005b61016c6105ff565b73ffffffffffffffffffffffffffffffffffffffff1661018a61036c565b73ffffffffffffffffffffffffffffffffffffffff16146101e0576040517f08c379a00000000000000000000000000000000000000000000000000000000081526004016101d79061098c565b60405180910390fd5b6000600160008373ffffffffffffffffffffffffffffffffffffffff1673ffffffffffffffffffffffffffffffffffffffff1681526020019081526020016000205490506000600160008473ffffffffffffffffffffffffffffffffffffffff1673ffffffffffffffffffffffffffffffffffffffff16815260200190815260200160002081905550610292818373ffffffffffffffffffffffffffffffffffffffff1661060790919063ffffffff16565b8173ffffffffffffffffffffffffffffffffffffffff167f7084f5476618d8e60b11ef0d7d3f06914655adb8793e28ff7f018d4c76d505d5826040516102d89190610914565b60405180910390a25050565b6102ec6105ff565b73ffffffffffffffffffffffffffffffffffffffff1661030a61036c565b73ffffffffffffffffffffffffffffffffffffffff1614610360576040517f08c379a00000000000000000000000000000000000000000000000000000000081526004016103579061098c565b60405180910390fd5b61036a6000610712565b565b60008060009054906101000a900473ffffffffffffffffffffffffffffffffffffffff16905090565b6000600160008373ffffffffffffffffffffffffffffffffffffffff1673ffffffffffffffffffffffffffffffffffffffff168152602001908152602001600020549050919050565b6103e66105ff565b73ffffffffffffffffffffffffffffffffffffffff1661040461036c565b73ffffffffffffffffffffffffffffffffffffffff161461045a576040517f08c379a00000000000000000000000000000000000000000000000000000000081526004016104519061098c565b60405180910390fd5b600073ffffffffffffffffffffffffffffffffffffffff168173ffffffffffffffffffffffffffffffffffffffff1614156104ca576040517f08c379a00000000000000000000000000000000000000000000000000000000081526004016104c190610a1e565b60405180910390fd5b6104d381610712565b50565b6104de6105ff565b73ffffffffffffffffffffffffffffffffffffffff166104fc61036c565b73ffffffffffffffffffffffffffffffffffffffff1614610552576040517f08c379a00000000000000000000000000000000000000000000000000000000081526004016105499061098c565b60405180910390fd5b600034905080600160008473ffffffffffffffffffffffffffffffffffffffff1673ffffffffffffffffffffffffffffffffffffffff16815260200190815260200160002060008282546105a69190610a6d565b925050819055508173ffffffffffffffffffffffffffffffffffffffff167f2da466a7b24304f47e87fa2e1e5a81b9831ce54fec19055ce277ca2f39ba42c4826040516105f39190610914565b60405180910390a25050565b600033905090565b803073ffffffffffffffffffffffffffffffffffffffff16311015610661576040517f08c379a000000000000000000000000000000000000000000000000000000000815260040161065890610b0f565b60405180910390fd5b60008273ffffffffffffffffffffffffffffffffffffffff168260405161068790610b60565b60006040518083038185875af1925050503d80600081146106c4576040519150601f19603f3d011682016040523d82523d6000602084013e6106c9565b606091505b505090508061070d576040517f08c379a000000000000000000000000000000000000000000000000000000000815260040161070490610be7565b60405180910390fd5b505050565b60008060009054906101000a900473ffffffffffffffffffffffffffffffffffffffff169050816000806101000a81548173ffffffffffffffffffffffffffffffffffffffff021916908373ffffffffffffffffffffffffffffffffffffffff1602179055508173ffffffffffffffffffffffffffffffffffffffff168173ffffffffffffffffffffffffffffffffffffffff167f8be0079c531659141344cd1fd0a4f28419497f9722a3daafe3b4186f6b6457e060405160405180910390a35050565b600080fd5b600073ffffffffffffffffffffffffffffffffffffffff82169050919050565b6000610806826107db565b9050919050565b610816816107fb565b811461082157600080fd5b50565b6000813590506108338161080d565b92915050565b60006020828403121561084f5761084e6107d6565b5b600061085d84828501610824565b91505092915050565b6000610871826107db565b9050919050565b61088181610866565b82525050565b600060208201905061089c6000830184610878565b92915050565b6108ab81610866565b81146108b657600080fd5b50565b6000813590506108c8816108a2565b92915050565b6000602082840312156108e4576108e36107d6565b5b60006108f2848285016108b9565b91505092915050565b6000819050919050565b61090e816108fb565b82525050565b60006020820190506109296000830184610905565b92915050565b600082825260208201905092915050565b7f4f776e61626c653a2063616c6c6572206973206e6f7420746865206f776e6572600082015250565b600061097660208361092f565b915061098182610940565b602082019050919050565b600060208201905081810360008301526109a581610969565b9050919050565b7f4f776e61626c653a206e6577206f776e657220697320746865207a65726f206160008201527f6464726573730000000000000000000000000000000000000000000000000000602082015250565b6000610a0860268361092f565b9150610a13826109ac565b604082019050919050565b60006020820190508181036000830152610a37816109fb565b9050919050565b7f4e487b7100000000000000000000000000000000000000000000000000000000600052601160045260246000fd5b6000610a78826108fb565b9150610a83836108fb565b9250827fffffffffffffffffffffffffffffffffffffffffffffffffffffffffffffffff03821115610ab857610ab7610a3e565b5b828201905092915050565b7f416464726573733a20696e73756666696369656e742062616c616e6365000000600082015250565b6000610af9601d8361092f565b9150610b0482610ac3565b602082019050919050565b60006020820190508181036000830152610b2881610aec565b9050919050565b600081905092915050565b50565b6000610b4a600083610b2f565b9150610b5582610b3a565b600082019050919050565b6000610b6b82610b3d565b9150819050919050565b7f416464726573733a20756e61626c6520746f2073656e642076616c75652c207260008201527f6563697069656e74206d61792068617665207265766572746564000000000000602082015250565b6000610bd1603a8361092f565b9150610bdc82610b75565b604082019050919050565b60006020820190508181036000830152610c0081610bc4565b905091905056fea26469706673582212208b096a6f041834020838ef8b3df9590544c2bca6e31eea7565ae87a77fc122e864736f6c634300080b0033",
    "immutableReferences": {
        "111": [
            {
                "length": 32,
                "start": 3479
            },
            {
                "length": 32,
                "start": 7419
            },
            {
                "length": 32,
                "start": 11049
            }
        ]
    },
    "source": "// SPDX-License-Identifier: MIT\r\n\r\n/// @title: Mfers 3D\r\n/// @dev: @zeroknowledgep\r\n/// @artist: @_SWARTX_ \r\n/// @OriginalArtBy: @sartoshi_nft\r\n\r\n///////////////////////////////////////////////////////////////////\r\n//////\r\n//////\r\n//////\r\n//////\r\n//////\r\n//////\r\n///////////////////////////////////////////////////////////////////\r\n\r\npragma solidity ^0.8.11;\r\n\r\nimport \"erc721a/contracts/ERC721A.sol\";\r\nimport \"@openzeppelin/contracts/access/Ownable.sol\";\r\nimport \"@openzeppelin/contracts/security/PullPayment.sol\";\r\nimport \"@openzeppelin/contracts/utils/Counters.sol\";\r\nimport \"@openzeppelin/contracts/utils/math/SafeMath.sol\";\r\n\r\ncontract Mfers3D is ERC721A, Ownable, PullPayment{\r\n  using SafeMath for uint;\r\n  using Strings for uint256;\r\n\r\n  mapping (uint256 => bool) specialToken;\r\n\r\n  address constant devAddr = address(0xDE275BA0f69d1A83966958A56Bc82edAA3A24F8C);\r\n  address constant mferCommunityAddr = address(0x3728ab20F0da7E5863F25865Ad7f5D6863e5000E);\r\n  address mferContractAddr;\r\n  bool public presale = true;\r\n  bool public paused = false;\r\n  bool public revealed = false;\r\n  bool public revealed2 = false;\r\n\r\n  uint256 public cost = 2500000000 wei;\r\n  uint256 public mferCommunityShare = cost.div(5);\r\n  uint256 private devShare = cost.div(10);\r\n  uint256 private ownerShare = cost.sub(devShare.add(mferCommunityShare));\r\n  uint256 public maxSupply = 10;\r\n  uint256 public maxMintPerAddress = 1;\r\n  uint256 public maxmintPresale = 2;\r\n  \r\n  string baseURI;\r\n  string baseURI2;\r\n  string baseExtension = \".json\";\r\n  string notRevealedUri;\r\n\r\n  constructor(\r\n    string memory _name,\r\n    string memory _symbol,\r\n    string memory _initBaseURI,\r\n    string memory _initNotRevealedUri,\r\n    address _mferAddress\r\n  ) ERC721A(_name, _symbol) {\r\n    setBaseURI(_initBaseURI);\r\n    setNotRevealedURI(_initNotRevealedUri);\r\n    setMferAddress(_mferAddress);\r\n\r\n  // nearly 30 special IDs will be specified during contract deployment\r\n    setSpecialTokenState(4,true);\r\n    setSpecialTokenState(7,true);\r\n    setSpecialTokenState(12,true);\r\n  }\r\n\r\n  function mint(uint256 quantity) external payable {\r\n    require(!paused, \"the contract is paused\");\r\n    uint256 _minted = _totalMinted();\r\n    require(_minted.add(quantity)<=maxSupply,\"Cant mint above max supply\");\r\n    require(quantity > 0, \"mint atleast 1 NFT\");\r\n    uint256 _mintedbysender = _numberMinted(msg.sender);\r\n    require( _mintedbysender.add(quantity) <= maxMintPerAddress, \"Maximum mint limit per wallet\");\r\n    \r\n    if(presale){\r\n        require(_minted.add(quantity)<=maxmintPresale, \"Presale limit over\");\r\n        require(ismferOwner(msg.sender),\"not whitelisted for presale\");\r\n    }else{\r\n        require(msg.value >= cost.mul(quantity), \"insufficient funds\");\r\n\r\n        _asyncTransfer(devAddr, devShare.mul(quantity));\r\n        _asyncTransfer(mferCommunityAddr, mferCommunityShare.mul(quantity));\r\n        _asyncTransfer(owner(), ownerShare.mul(quantity));\r\n    }\r\n\r\n \r\n    _safeMint(msg.sender, quantity);\r\n  }\r\n\r\n  function _baseURI() internal view virtual override returns (string memory){\r\n    return baseURI;\r\n  }\r\n\r\n  function tokenURI(uint256 tokenId) public view virtual override returns (string memory) {\r\n    if (!_exists(tokenId)) revert URIQueryForNonexistentToken();\r\n  \r\n    if(!revealed){\r\n      return notRevealedUri;\r\n    }\r\n\r\n    if(specialToken[tokenId]){\r\n      if(!revealed2){\r\n        return notRevealedUri;\r\n      }  \r\n      return bytes(baseURI2).length != 0 ? string(abi.encodePacked(baseURI2, tokenId.toString(), baseExtension)) : '';\r\n    }\r\n\r\n    return bytes(baseURI).length != 0 ? string(abi.encodePacked(baseURI, tokenId.toString(), baseExtension)) : '';\r\n  }\r\n\r\n  // Internal functions only set during contract deployment through constructor\r\n  function setSpecialTokenState(uint256 _tokenId, bool _state) internal{\r\n    specialToken[_tokenId] = _state;\r\n  }\r\n  \r\n  function setMferAddress(address _mferAddress) internal{\r\n    mferContractAddr = _mferAddress;\r\n  }\r\n\r\n  function setNotRevealedURI(string memory _notRevealedUri) internal{\r\n    notRevealedUri = _notRevealedUri;\r\n  }\r\n\r\n  function ismferOwner(address _minter) internal view returns (bool) {\r\n    // logic to verify the address _minter hold original mfer\r\n    IERC721 token = IERC721(mferContractAddr);\r\n    if(token.balanceOf(_minter)>=1){\r\n      return true;\r\n    }else{\r\n      return false;\r\n    }    \r\n  }\r\n\r\n// Public functions to modify state by owner\r\n\r\n  function setBaseURI(string memory _BaseURI) public onlyOwner{\r\n    baseURI = _BaseURI;\r\n  }\r\n\r\n\r\n  function setMintPublic() public onlyOwner{\r\n    presale = false;\r\n  }\r\n\r\n  function setRevealed(bool _state,bool _state2) public onlyOwner{\r\n    revealed = _state;\r\n    revealed2 = _state2;\r\n  }\r\n\r\n  function pause(bool _state) public onlyOwner{\r\n    paused = _state;\r\n  }\r\n\r\n  function setBaseURI2(string memory _BaseURI2) public onlyOwner{\r\n    baseURI2 = _BaseURI2;\r\n  }\r\n\r\n  function withdraw() public onlyOwner{\r\n      (bool os, ) = payable(owner()).call{value: address(this).balance}(\"\");\r\n      require(os);\r\n  }\r\n\r\n  function getbaseURI() public view onlyOwner returns(string memory){\r\n    return baseURI;\r\n  }\r\n\r\n  function getbaseURI2() public view onlyOwner returns(string memory){\r\n    return baseURI2;\r\n  }\r\n// public view functions\r\n  function totalMinted() public view returns(uint256){\r\n    uint256 total = _totalMinted();\r\n    return total;\r\n  }\r\n\r\n}\r\n\r\n",
    "sourcePath": "D:\\Engineering\\dapps\\3Dmfer\\contracts\\Mfers3D.sol",
    "compiler": {
        "name": "solc",
        "version": "0.8.11+commit.d7f03943.Emscripten.clang"
    },
    "schemaVersion": "3.4.3",
    "updatedAt": "2022-03-16T19:44:48.306Z",
    "devdoc": {
        "kind": "dev",
        "methods": {
            "approve(address,uint256)": {
                "details": "See {IERC721-approve}."
            },
            "balanceOf(address)": {
                "details": "See {IERC721-balanceOf}."
            },
            "getApproved(uint256)": {
                "details": "See {IERC721-getApproved}."
            },
            "isApprovedForAll(address,address)": {
                "details": "See {IERC721-isApprovedForAll}."
            },
            "name()": {
                "details": "See {IERC721Metadata-name}."
            },
            "owner()": {
                "details": "Returns the address of the current owner."
            },
            "ownerOf(uint256)": {
                "details": "See {IERC721-ownerOf}."
            },
            "payments(address)": {
                "details": "Returns the payments owed to an address.",
                "params": {
                    "dest": "The creditor's address."
                }
            },
            "renounceOwnership()": {
                "details": "Leaves the contract without owner. It will not be possible to call `onlyOwner` functions anymore. Can only be called by the current owner. NOTE: Renouncing ownership will leave the contract without an owner, thereby removing any functionality that is only available to the owner."
            },
            "safeTransferFrom(address,address,uint256)": {
                "details": "See {IERC721-safeTransferFrom}."
            },
            "safeTransferFrom(address,address,uint256,bytes)": {
                "details": "See {IERC721-safeTransferFrom}."
            },
            "setApprovalForAll(address,bool)": {
                "details": "See {IERC721-setApprovalForAll}."
            },
            "supportsInterface(bytes4)": {
                "details": "See {IERC165-supportsInterface}."
            },
            "symbol()": {
                "details": "See {IERC721Metadata-symbol}."
            },
            "tokenURI(uint256)": {
                "details": "See {IERC721Metadata-tokenURI}."
            },
            "totalSupply()": {
                "details": "See {IERC721Enumerable-totalSupply}.Burned tokens are calculated here, use _totalMinted() if you want to count just minted tokens."
            },
            "transferFrom(address,address,uint256)": {
                "details": "See {IERC721-transferFrom}."
            },
            "transferOwnership(address)": {
                "details": "Transfers ownership of the contract to a new account (`newOwner`). Can only be called by the current owner."
            },
            "withdrawPayments(address)": {
                "details": "Withdraw accumulated payments, forwarding all gas to the recipient. Note that _any_ account can call this function, not just the `payee`. This means that contracts unaware of the `PullPayment` protocol can still receive funds this way, by having a separate account call {withdrawPayments}. WARNING: Forwarding all gas opens the door to reentrancy vulnerabilities. Make sure you trust the recipient, or are either following the checks-effects-interactions pattern or using {ReentrancyGuard}.",
                "params": {
                    "payee": "Whose payments will be withdrawn."
                }
            }
        },
        "version": 1
    },
    "userdoc": {
        "kind": "user",
        "methods": {},
        "version": 1
    }
}